{
  "contractName": "HashVerifier",
  "abi": [
    {
      "inputs": [
        {
          "internalType": "bytes32",
          "name": "x",
          "type": "bytes32"
        }
      ],
      "name": "hash",
      "outputs": [
        {
          "internalType": "bytes32",
          "name": "r",
          "type": "bytes32"
        }
      ],
      "stateMutability": "pure",
      "type": "function",
      "constant": true
    }
  ],
  "bytecode": "0x608060405234801561001057600080fd5b506103d1806100206000396000f3fe608060405234801561001057600080fd5b506004361061002b5760003560e01c8063d8389dc514610030575b600080fd5b61004a60048036038101906100459190610344565b610060565b6040516100579190610380565b60405180910390f35b60006040516020810160405282815260005b600a8110156102ea57602082208252602082208252602082208252602082208252602082208252602082208252602082208252602082208252602082208252602082208252602082208252602082208252602082208252602082208252602082208252602082208252602082208252602082208252602082208252602082208252602082208252602082208252602082208252602082208252602082208252602082208252602082208252602082208252602082208252602082208252602082208252602082208252602082208252602082208252602082208252602082208252602082208252602082208252602082208252602082208252602082208252602082208252602082208252602082208252602082208252602082208252602082208252602082208252602082208252602082208252602082208252602082208252602082208252602082208252602082208252602082208252602082208252602082208252602082208252602082208252602082208252602082208252602082208252602082208252602082208252602082208252602082208252602082208252602082208252602082208252602082208252602082208252602082208252602082208252602082208252602082208252602082208252602082208252602082208252602082208252602082208252602082208252602082208252602082208252602082208252602082208252602082208252602082208252602082208252602082208252602082208252602082208252602082208252602082208252602082208252602082208252602082208252602082208252602082208252602082208252602082208252602082208252600181019050610072565b5060208120815260208120815260208120815260208120915050919050565b600080fd5b6000819050919050565b6103218161030e565b811461032c57600080fd5b50565b60008135905061033e81610318565b92915050565b60006020828403121561035a57610359610309565b5b60006103688482850161032f565b91505092915050565b61037a8161030e565b82525050565b60006020820190506103956000830184610371565b9291505056fea264697066735822122078b62b06879fb9a92add996a5637a3bb6964626c61b36805e342c323a4ff1fc164736f6c634300080a0033",
  "immutableReferences": {},
  "source": "// SPDX-License-Identifier: UNLICENSED (not sure what put)\n\npragma solidity >=0.4.7 <0.9.0;\n\nimport \"./SequentialFunction.sol\";\n\ncontract HashVerifier is SequentialFunction{\n\n\n    function verify(bytes32 x,bytes32 y) internal pure override returns (bool){\n         return hash(x)==y;\n\n    }\n\n\n\n    //Unrolled loop for speed improvements (48 gas per hash)\n    //Returns keccack^1024(x)\n    function hash(bytes32 x) public pure returns (bytes32 r){\n        assembly{\n\n            let nextFree:=mload(0x40)\n            mstore(0x40,add(nextFree,0x20))\n\n            mstore(nextFree,x)\n            for {let n:=0} lt(n,10) {n := add(n,1) } {\n            \tmstore(nextFree,keccak256(nextFree,0x20))\n           \t mstore(nextFree,keccak256(nextFree,0x20))\n            \tmstore(nextFree,keccak256(nextFree,0x20))\n            \tmstore(nextFree,keccak256(nextFree,0x20))\n            \tmstore(nextFree,keccak256(nextFree,0x20))\n            \tmstore(nextFree,keccak256(nextFree,0x20))\n            \tmstore(nextFree,keccak256(nextFree,0x20))\n            \tmstore(nextFree,keccak256(nextFree,0x20))\n            \tmstore(nextFree,keccak256(nextFree,0x20))\n            \tmstore(nextFree,keccak256(nextFree,0x20))\n            \tmstore(nextFree,keccak256(nextFree,0x20))\n            \tmstore(nextFree,keccak256(nextFree,0x20))\n            \tmstore(nextFree,keccak256(nextFree,0x20))\n            \tmstore(nextFree,keccak256(nextFree,0x20))\n            \tmstore(nextFree,keccak256(nextFree,0x20))\n            \tmstore(nextFree,keccak256(nextFree,0x20))\n            \tmstore(nextFree,keccak256(nextFree,0x20))\n            \tmstore(nextFree,keccak256(nextFree,0x20))\n            \tmstore(nextFree,keccak256(nextFree,0x20))\n            \tmstore(nextFree,keccak256(nextFree,0x20))\n            \tmstore(nextFree,keccak256(nextFree,0x20))\n            \tmstore(nextFree,keccak256(nextFree,0x20))\n            \tmstore(nextFree,keccak256(nextFree,0x20))\n            \tmstore(nextFree,keccak256(nextFree,0x20))\n            \tmstore(nextFree,keccak256(nextFree,0x20))\n            \tmstore(nextFree,keccak256(nextFree,0x20))\n            \tmstore(nextFree,keccak256(nextFree,0x20))\n            \tmstore(nextFree,keccak256(nextFree,0x20))\n            \tmstore(nextFree,keccak256(nextFree,0x20))\n            \tmstore(nextFree,keccak256(nextFree,0x20))\n            \tmstore(nextFree,keccak256(nextFree,0x20))\n            \tmstore(nextFree,keccak256(nextFree,0x20))\n            \tmstore(nextFree,keccak256(nextFree,0x20))\n            \tmstore(nextFree,keccak256(nextFree,0x20))\n            \tmstore(nextFree,keccak256(nextFree,0x20))\n            \tmstore(nextFree,keccak256(nextFree,0x20))\n            \tmstore(nextFree,keccak256(nextFree,0x20))\n            \tmstore(nextFree,keccak256(nextFree,0x20))\n            \tmstore(nextFree,keccak256(nextFree,0x20))\n            \tmstore(nextFree,keccak256(nextFree,0x20))\n            \tmstore(nextFree,keccak256(nextFree,0x20))\n            \tmstore(nextFree,keccak256(nextFree,0x20))\n            \tmstore(nextFree,keccak256(nextFree,0x20))\n            \tmstore(nextFree,keccak256(nextFree,0x20))\n            \tmstore(nextFree,keccak256(nextFree,0x20))\n            \tmstore(nextFree,keccak256(nextFree,0x20))\n            \tmstore(nextFree,keccak256(nextFree,0x20))\n            \tmstore(nextFree,keccak256(nextFree,0x20))\n            \tmstore(nextFree,keccak256(nextFree,0x20))\n            \tmstore(nextFree,keccak256(nextFree,0x20))\n            \tmstore(nextFree,keccak256(nextFree,0x20))\n            \tmstore(nextFree,keccak256(nextFree,0x20))\n            \tmstore(nextFree,keccak256(nextFree,0x20))\n            \tmstore(nextFree,keccak256(nextFree,0x20))\n            \tmstore(nextFree,keccak256(nextFree,0x20))\n            \tmstore(nextFree,keccak256(nextFree,0x20))\n            \tmstore(nextFree,keccak256(nextFree,0x20))\n            \tmstore(nextFree,keccak256(nextFree,0x20))\n            \tmstore(nextFree,keccak256(nextFree,0x20))\n            \tmstore(nextFree,keccak256(nextFree,0x20))\n            \tmstore(nextFree,keccak256(nextFree,0x20))\n            \tmstore(nextFree,keccak256(nextFree,0x20))\n            \tmstore(nextFree,keccak256(nextFree,0x20))\n            \tmstore(nextFree,keccak256(nextFree,0x20))\n            \tmstore(nextFree,keccak256(nextFree,0x20))\n            \tmstore(nextFree,keccak256(nextFree,0x20))\n            \tmstore(nextFree,keccak256(nextFree,0x20))\n            \tmstore(nextFree,keccak256(nextFree,0x20))\n            \tmstore(nextFree,keccak256(nextFree,0x20))\n            \tmstore(nextFree,keccak256(nextFree,0x20))\n            \tmstore(nextFree,keccak256(nextFree,0x20))\n            \tmstore(nextFree,keccak256(nextFree,0x20))\n            \tmstore(nextFree,keccak256(nextFree,0x20))\n            \tmstore(nextFree,keccak256(nextFree,0x20))\n            \tmstore(nextFree,keccak256(nextFree,0x20))\n            \tmstore(nextFree,keccak256(nextFree,0x20))\n            \tmstore(nextFree,keccak256(nextFree,0x20))\n            \tmstore(nextFree,keccak256(nextFree,0x20))\n            \tmstore(nextFree,keccak256(nextFree,0x20))\n            \tmstore(nextFree,keccak256(nextFree,0x20))\n            \tmstore(nextFree,keccak256(nextFree,0x20))\n            \tmstore(nextFree,keccak256(nextFree,0x20))\n            \tmstore(nextFree,keccak256(nextFree,0x20))\n            \tmstore(nextFree,keccak256(nextFree,0x20))\n            \tmstore(nextFree,keccak256(nextFree,0x20))\n            \tmstore(nextFree,keccak256(nextFree,0x20))\n            \tmstore(nextFree,keccak256(nextFree,0x20))\n            \tmstore(nextFree,keccak256(nextFree,0x20))\n            \tmstore(nextFree,keccak256(nextFree,0x20))\n            \tmstore(nextFree,keccak256(nextFree,0x20))\n            \tmstore(nextFree,keccak256(nextFree,0x20))\n            \tmstore(nextFree,keccak256(nextFree,0x20))\n            \tmstore(nextFree,keccak256(nextFree,0x20))\n            \tmstore(nextFree,keccak256(nextFree,0x20))\n            \tmstore(nextFree,keccak256(nextFree,0x20))\n            \tmstore(nextFree,keccak256(nextFree,0x20))\n            \tmstore(nextFree,keccak256(nextFree,0x20))\n            \tmstore(nextFree,keccak256(nextFree,0x20))\n            \tmstore(nextFree,keccak256(nextFree,0x20))\n            \tmstore(nextFree,keccak256(nextFree,0x20))\n            \tmstore(nextFree,keccak256(nextFree,0x20))\n            \tmstore(nextFree,keccak256(nextFree,0x20))\n\t    }\n            mstore(nextFree,keccak256(nextFree,0x20))\n            mstore(nextFree,keccak256(nextFree,0x20))\n            mstore(nextFree,keccak256(nextFree,0x20))\n\n            r:= keccak256(nextFree,0x20)\n    }\n    }\n    }\n\n\n\n\n",
  "sourcePath": "/home/preston/python-random-beacon/contracts/SequentialHashing.sol",
  "compiler": {
    "name": "solc",
    "version": "0.8.10+commit.fc410830.Emscripten.clang"
  },
  "schemaVersion": "3.4.3",
  "updatedAt": "2021-11-29T20:21:49.779Z",
  "networkType": "ethereum",
  "devdoc": {
    "kind": "dev",
    "methods": {},
    "version": 1
  },
  "userdoc": {
    "kind": "user",
    "methods": {},
    "version": 1
  }
}