{
  "contractName": "Referee",
  "abi": [
    {
      "anonymous": false,
      "inputs": [
        {
          "indexed": false,
          "internalType": "uint8",
          "name": "round",
          "type": "uint8"
        },
        {
          "indexed": false,
          "internalType": "uint8",
          "name": "prevIdx",
          "type": "uint8"
        },
        {
          "indexed": false,
          "internalType": "bytes32[7]",
          "name": "checkpoints",
          "type": "bytes32[7]"
        },
        {
          "indexed": false,
          "internalType": "address",
          "name": "challenger",
          "type": "address"
        }
      ],
      "name": "Challenge",
      "type": "event"
    },
    {
      "anonymous": false,
      "inputs": [
        {
          "indexed": false,
          "internalType": "bytes32",
          "name": "start",
          "type": "bytes32"
        },
        {
          "indexed": false,
          "internalType": "bytes32",
          "name": "beacon",
          "type": "bytes32"
        }
      ],
      "name": "SubBeacon",
      "type": "event"
    },
    {
      "inputs": [
        {
          "internalType": "bytes32",
          "name": "x",
          "type": "bytes32"
        }
      ],
      "name": "hash",
      "outputs": [
        {
          "internalType": "bytes32",
          "name": "r",
          "type": "bytes32"
        }
      ],
      "stateMutability": "pure",
      "type": "function",
      "constant": true
    },
    {
      "inputs": [
        {
          "internalType": "bytes32",
          "name": "start",
          "type": "bytes32"
        },
        {
          "internalType": "bytes32",
          "name": "_beacon",
          "type": "bytes32"
        },
        {
          "internalType": "bytes32[7]",
          "name": "_checkpoints",
          "type": "bytes32[7]"
        }
      ],
      "name": "submitBeacon",
      "outputs": [],
      "stateMutability": "nonpayable",
      "type": "function"
    },
    {
      "inputs": [
        {
          "internalType": "uint8",
          "name": "prevIndex",
          "type": "uint8"
        },
        {
          "internalType": "bytes32[7]",
          "name": "_checkpoints",
          "type": "bytes32[7]"
        },
        {
          "internalType": "address",
          "name": "challenger",
          "type": "address"
        }
      ],
      "name": "postChallenge",
      "outputs": [],
      "stateMutability": "nonpayable",
      "type": "function"
    },
    {
      "inputs": [],
      "name": "callTimeout",
      "outputs": [],
      "stateMutability": "nonpayable",
      "type": "function"
    },
    {
      "inputs": [
        {
          "internalType": "uint8",
          "name": "prevIndex",
          "type": "uint8"
        }
      ],
      "name": "finalChallenge",
      "outputs": [
        {
          "internalType": "bool",
          "name": "",
          "type": "bool"
        }
      ],
      "stateMutability": "nonpayable",
      "type": "function"
    },
    {
      "inputs": [],
      "name": "getChallenge",
      "outputs": [
        {
          "internalType": "bytes32",
          "name": "",
          "type": "bytes32"
        }
      ],
      "stateMutability": "view",
      "type": "function",
      "constant": true
    },
    {
      "inputs": [],
      "name": "getBeacon",
      "outputs": [
        {
          "internalType": "bytes32",
          "name": "",
          "type": "bytes32"
        }
      ],
      "stateMutability": "view",
      "type": "function",
      "constant": true
    },
    {
      "inputs": [],
      "name": "getCheckpoints",
      "outputs": [
        {
          "internalType": "bytes32[7]",
          "name": "",
          "type": "bytes32[7]"
        }
      ],
      "stateMutability": "view",
      "type": "function",
      "constant": true
    },
    {
      "inputs": [],
      "name": "getFirstCheckpoint",
      "outputs": [
        {
          "internalType": "bytes32",
          "name": "",
          "type": "bytes32"
        }
      ],
      "stateMutability": "view",
      "type": "function",
      "constant": true
    },
    {
      "inputs": [],
      "name": "getLastCheckpoint",
      "outputs": [
        {
          "internalType": "bytes32",
          "name": "",
          "type": "bytes32"
        }
      ],
      "stateMutability": "view",
      "type": "function",
      "constant": true
    }
  ],
  "bytecode": "0x608060405234801561001057600080fd5b506117fc806100206000396000f3fe608060405234801561001057600080fd5b506004361061009e5760003560e01c8063938f2d5111610066578063938f2d5114610135578063a0486c7c14610153578063b1f8b30314610171578063c8d38f441461018f578063d8389dc5146101ab5761009e565b80631bdc4ce1146100a35780632d6b3a6b146100bf57806362177b91146100dd578063759014f0146100e757806377b540dd14610105575b600080fd5b6100bd60048036038101906100b891906112c8565b6101db565b005b6100c761032e565b6040516100d4919061132b565b60405180910390f35b6100e561033b565b005b6100ef610479565b6040516100fc919061132b565b60405180910390f35b61011f600480360381019061011a919061137f565b610482565b60405161012c91906113c7565b60405180910390f35b61013d610774565b60405161014a919061148d565b60405180910390f35b61015b6107ff565b604051610168919061132b565b60405180910390f35b610179610849565b604051610186919061132b565b60405180910390f35b6101a960048036038101906101a49190611506565b610893565b005b6101c560048036038101906101c0919061155b565b610dec565b6040516101d2919061132b565b60405180910390f35b60011515600160000160009054906101000a900460ff16151514156101ff57600080fd5b6040518060c00160405280600115158152602001848152602001838152602001828152602001600060ff16815260200142815250600160008201518160000160006101000a81548160ff02191690831515021790555060208201518160010155604082015181600201556060820151816003019060076102809291906110aa565b50608082015181600a0160006101000a81548160ff021916908360ff16021790555060a082015181600b015590505033600e60006101000a81548173ffffffffffffffffffffffffffffffffffffffff021916908373ffffffffffffffffffffffffffffffffffffffff1602179055507fe7c6beab44e5eb5936a0ee8d031946e5dae3d82eeeb000eb70facf3d1109e2a88383604051610321929190611588565b60405180910390a1505050565b6000600160020154905090565b6000600d60003373ffffffffffffffffffffffffffffffffffffffff1673ffffffffffffffffffffffffffffffffffffffff1681526020019081526020016000206040518060c00160405290816000820160009054906101000a900460ff161515151581526020016001820154815260200160028201548152602001600382016007806020026040519081016040528092919082600780156103f2576020028201915b8154815260200190600101908083116103de575b50505050508152602001600a820160009054906101000a900460ff1660ff1660ff168152602001600b82015481525050905060016002826080015161043791906115e0565b60ff161461044457600080fd5b61012c8160a0015142610457919061164a565b1115610476573373ffffffffffffffffffffffffffffffffffffffff16ff5b50565b60008054905090565b6000611c206001600b0154610497919061167e565b4211156104a357600080fd5b81600160086104b291906116d4565b60ff168160ff16106104c357600080fd5b60003390506000600d60008373ffffffffffffffffffffffffffffffffffffffff1673ffffffffffffffffffffffffffffffffffffffff1681526020019081526020016000206040518060c00160405290816000820160009054906101000a900460ff1615151515815260200160018201548152602001600282015481526020016003820160078060200260405190810160405280929190826007801561057f576020028201915b81548152602001906001019080831161056b575b50505050508152602001600a820160009054906101000a900460ff1660ff1660ff168152602001600b820154815250509050600a60ff16816080015160ff16146105c857600080fd5b6000806000808860ff161415610603578360200151905083606001516000600781106105f7576105f6611708565b5b602002015192506106a7565b6002600861061191906116d4565b60ff168860ff16141561065757836060015160018961063091906116d4565b60ff166007811061064457610643611708565b5b60200201519050836040015192506106a6565b836060015160018961066991906116d4565b60ff166007811061067d5761067c611708565b5b6020020151905083606001518860ff166007811061069e5761069d611708565b5b602002015192505b5b60006106b38285611095565b9050806106d3578573ffffffffffffffffffffffffffffffffffffffff16ff5b600d60008773ffffffffffffffffffffffffffffffffffffffff1673ffffffffffffffffffffffffffffffffffffffff168152602001908152602001600020600080820160006101000a81549060ff02191690556001820160009055600282016000905560038201600061074791906110ea565b600a820160006101000a81549060ff0219169055600b820160009055505080975050505050505050919050565b61077c6110fd565b600d60003373ffffffffffffffffffffffffffffffffffffffff1673ffffffffffffffffffffffffffffffffffffffff1681526020019081526020016000206003016007806020026040519081016040528092919082600780156107f5576020028201915b8154815260200190600101908083116107e1575b5050505050905090565b6000600d60003373ffffffffffffffffffffffffffffffffffffffff1673ffffffffffffffffffffffffffffffffffffffff16815260200190815260200160002060010154905090565b6000600d60003373ffffffffffffffffffffffffffffffffffffffff1673ffffffffffffffffffffffffffffffffffffffff16815260200190815260200160002060020154905090565b60001515600160000160009054906101000a900460ff16151514156108b757600080fd5b611c206001600b01546108ca919061167e565b4211156108d657600080fd5b82600160086108e591906116d4565b60ff168160ff16106108f657600080fd5b6000600d60008473ffffffffffffffffffffffffffffffffffffffff1673ffffffffffffffffffffffffffffffffffffffff1681526020019081526020016000206040518060c00160405290816000820160009054906101000a900460ff161515151581526020016001820154815260200160028201548152602001600382016007806020026040519081016040528092919082600780156109ad576020028201915b815481526020019060010190808311610999575b50505050508152602001600a820160009054906101000a900460ff1660ff1660ff168152602001600b82015481525050905060001515816000015115151415610a70576040518060c001604052806001151581526020016001800154815260200160016002015481526020016001600301600780602002604051908101604052809291908260078015610a55576020028201915b815481526020019060010190808311610a41575b50505050508152602001600060ff1681526020014281525090505b600a60ff16816080015160ff1610610a8757600080fd5b600060028260800151610a9a91906115e0565b60ff16148015610ad657508273ffffffffffffffffffffffffffffffffffffffff163373ffffffffffffffffffffffffffffffffffffffff1614155b15610ae057600080fd5b600160028260800151610af391906115e0565b60ff16148015610b515750600e60009054906101000a900473ffffffffffffffffffffffffffffffffffffffff1673ffffffffffffffffffffffffffffffffffffffff163373ffffffffffffffffffffffffffffffffffffffff1614155b15610b5b57600080fd5b60008560ff161115610b9c578060600151600186610b7991906116d4565b60ff1660078110610b8d57610b8c611708565b5b60200201518160200181815250505b60026008610baa91906116d4565b60ff168560ff161015610be05780606001518560ff1660078110610bd157610bd0611708565b5b60200201518160400181815250505b838160600181905250806080018051610bf890611737565b60ff16908160ff1681525050428160a001818152505080600d60008573ffffffffffffffffffffffffffffffffffffffff1673ffffffffffffffffffffffffffffffffffffffff16815260200190815260200160002060008201518160000160006101000a81548160ff0219169083151502179055506020820151816001015560408201518160020155606082015181600301906007610c999291906110aa565b50608082015181600a0160006101000a81548160ff021916908360ff16021790555060a082015181600b015590505080600d6000600e60009054906101000a900473ffffffffffffffffffffffffffffffffffffffff1673ffffffffffffffffffffffffffffffffffffffff1673ffffffffffffffffffffffffffffffffffffffff16815260200190815260200160002060008201518160000160006101000a81548160ff0219169083151502179055506020820151816001015560408201518160020155606082015181600301906007610d759291906110aa565b50608082015181600a0160006101000a81548160ff021916908360ff16021790555060a082015181600b01559050507f5a84ef05c754777be6047ce6d088ffd43e956ac54a046122157ed28af31b0e2a8160800151868686604051610ddd949392919061177f565b60405180910390a15050505050565b60006040516020810160405282815260005b600a81101561107657602082208252602082208252602082208252602082208252602082208252602082208252602082208252602082208252602082208252602082208252602082208252602082208252602082208252602082208252602082208252602082208252602082208252602082208252602082208252602082208252602082208252602082208252602082208252602082208252602082208252602082208252602082208252602082208252602082208252602082208252602082208252602082208252602082208252602082208252602082208252602082208252602082208252602082208252602082208252602082208252602082208252602082208252602082208252602082208252602082208252602082208252602082208252602082208252602082208252602082208252602082208252602082208252602082208252602082208252602082208252602082208252602082208252602082208252602082208252602082208252602082208252602082208252602082208252602082208252602082208252602082208252602082208252602082208252602082208252602082208252602082208252602082208252602082208252602082208252602082208252602082208252602082208252602082208252602082208252602082208252602082208252602082208252602082208252602082208252602082208252602082208252602082208252602082208252602082208252602082208252602082208252602082208252602082208252602082208252602082208252602082208252602082208252602082208252602082208252602082208252602082208252602082208252600181019050610dfe565b5060208120815260208120815260208120815260208120915050919050565b6000816110a184610dec565b14905092915050565b82600781019282156110d9579160200282015b828111156110d85782518255916020019190600101906110bd565b5b5090506110e6919061111f565b5090565b5080600701906110fa919061111f565b50565b6040518060e00160405280600790602082028036833780820191505090505090565b5b80821115611138576000816000905550600101611120565b5090565b6000604051905090565b600080fd5b6000819050919050565b61115e8161114b565b811461116957600080fd5b50565b60008135905061117b81611155565b92915050565b600080fd5b6000601f19601f8301169050919050565b7f4e487b7100000000000000000000000000000000000000000000000000000000600052604160045260246000fd5b6111cf82611186565b810181811067ffffffffffffffff821117156111ee576111ed611197565b5b80604052505050565b600061120161113c565b905061120d82826111c6565b919050565b600067ffffffffffffffff82111561122d5761122c611197565b5b602082029050919050565b600080fd5b600061125061124b84611212565b6111f7565b9050806020840283018581111561126a57611269611238565b5b835b81811015611293578061127f888261116c565b84526020840193505060208101905061126c565b5050509392505050565b600082601f8301126112b2576112b1611181565b5b60076112bf84828561123d565b91505092915050565b600080600061012084860312156112e2576112e1611146565b5b60006112f08682870161116c565b93505060206113018682870161116c565b92505060406113128682870161129d565b9150509250925092565b6113258161114b565b82525050565b6000602082019050611340600083018461131c565b92915050565b600060ff82169050919050565b61135c81611346565b811461136757600080fd5b50565b60008135905061137981611353565b92915050565b60006020828403121561139557611394611146565b5b60006113a38482850161136a565b91505092915050565b60008115159050919050565b6113c1816113ac565b82525050565b60006020820190506113dc60008301846113b8565b92915050565b600060079050919050565b600081905092915050565b6000819050919050565b61140b8161114b565b82525050565b600061141d8383611402565b60208301905092915050565b6000602082019050919050565b61143f816113e2565b61144981846113ed565b9250611454826113f8565b8060005b8381101561148557815161146c8782611411565b965061147783611429565b925050600181019050611458565b505050505050565b600060e0820190506114a26000830184611436565b92915050565b600073ffffffffffffffffffffffffffffffffffffffff82169050919050565b60006114d3826114a8565b9050919050565b6114e3816114c8565b81146114ee57600080fd5b50565b600081359050611500816114da565b92915050565b600080600061012084860312156115205761151f611146565b5b600061152e8682870161136a565b935050602061153f8682870161129d565b925050610100611551868287016114f1565b9150509250925092565b60006020828403121561157157611570611146565b5b600061157f8482850161116c565b91505092915050565b600060408201905061159d600083018561131c565b6115aa602083018461131c565b9392505050565b7f4e487b7100000000000000000000000000000000000000000000000000000000600052601260045260246000fd5b60006115eb82611346565b91506115f683611346565b925082611606576116056115b1565b5b828206905092915050565b6000819050919050565b7f4e487b7100000000000000000000000000000000000000000000000000000000600052601160045260246000fd5b600061165582611611565b915061166083611611565b9250828210156116735761167261161b565b5b828203905092915050565b600061168982611611565b915061169483611611565b9250827fffffffffffffffffffffffffffffffffffffffffffffffffffffffffffffffff038211156116c9576116c861161b565b5b828201905092915050565b60006116df82611346565b91506116ea83611346565b9250828210156116fd576116fc61161b565b5b828203905092915050565b7f4e487b7100000000000000000000000000000000000000000000000000000000600052603260045260246000fd5b600061174282611346565b915060ff8214156117565761175561161b565b5b600182019050919050565b61176a81611346565b82525050565b611779816114c8565b82525050565b6000610140820190506117956000830187611761565b6117a26020830186611761565b6117af6040830185611436565b6117bd610120830184611770565b9594505050505056fea2646970667358221220150704bda2ad7531699dc1666fcb15c12660b603398e65a044948f2c16adb20e64736f6c634300080a0033",
  "immutableReferences": {},
  "source": "// SPDX-License-Identifier: UNLICENSED (not sure what put)\n\npragma solidity >=0.4.7 <0.9.0;\nimport \"./SequentialHashing.sol\";\n\ncontract Referee is HashVerifier{\n    //Should be power of 2\n    uint8 constant NUM_CHECKPOINTS=1<<3;\n    //Has to be even\n    uint8 constant NUM_ROUNDS=10;\n    uint constant CHALLENGE_RESPONSE_TIMEOUT=5 minutes;\n    uint constant CHALLENGE_PERIOD=2 hours;\n\n    struct ChallengeState{\n        bool initialized;\n        bytes32 firstCheckpoint;\n        bytes32 lastCheckpoint;\n\n        bytes32[7] checkpoints;\n        uint8 round;\n        uint lastChallenge;\n\n    }\n    bytes32 private challenge;\n    //This stores the challenge and the beacon;\n    //TODO: Protect this and beacon getter\n    ChallengeState private initialState;\n\n    mapping(address => ChallengeState) private challenges;\n\n    address payable private prover;\n\n    event Challenge(uint8 round, uint8 prevIdx, bytes32[7] checkpoints, address challenger);\n\n    event SubBeacon(bytes32 start, bytes32 beacon);\n\n\n    //function RefereeStart() public {\n    //    challenge= blockhash(block.number-1);\n        //Fix for easier debuging\n    //}\n\n\n    function submitBeacon(bytes32 start, bytes32 _beacon, bytes32[7] memory _checkpoints) public noBeacon{\n\n        initialState=ChallengeState(true,start,_beacon,_checkpoints,0,block.timestamp);\n        prover=payable(msg.sender);\n\temit SubBeacon(start, _beacon);\n    }\n\n    function postChallenge(uint8 prevIndex,bytes32[7] memory _checkpoints,address challenger) public beaconExists inChallengePeriod  indexInBounds(prevIndex)  {\n        ChallengeState memory state=challenges[challenger];\n\n        if(state.initialized==false){\n            state=ChallengeState(true,initialState.firstCheckpoint,initialState.lastCheckpoint,initialState.checkpoints,0,block.timestamp);\n        }\n        if(state.round>=NUM_ROUNDS){\n            revert();\n        }\n        if(state.round%2==0&&msg.sender!=challenger){\n            revert();\n        }\n        if(state.round%2==1&&msg.sender!=prover){\n            revert();\n        }\n\n        if(prevIndex>0){\n            state.firstCheckpoint=state.checkpoints[prevIndex-1];\n        }\n        if(prevIndex<NUM_CHECKPOINTS-2){\n            state.lastCheckpoint=state.checkpoints[prevIndex];\n        }\n        state.checkpoints=_checkpoints;\n        ++state.round;\n        state.lastChallenge=block.timestamp;\n        challenges[challenger]=state;\n\tchallenges[prover]=state;\n        emit Challenge(state.round, prevIndex, _checkpoints, challenger);\n    }\n\n    function callTimeout() public {\n        ChallengeState memory state=challenges[msg.sender];\n        if(state.round%2!=1){\n            revert();\n        }\n        if(block.timestamp-state.lastChallenge>CHALLENGE_RESPONSE_TIMEOUT){\n                        selfdestruct(payable(msg.sender));\n        }\n\n    }\n\n    function finalChallenge(uint8 prevIndex) public inChallengePeriod indexInBounds(prevIndex)  returns (bool){\n        address challenger=msg.sender;\n        ChallengeState memory state=challenges[challenger];\n        if(state.round!=NUM_ROUNDS){\n            revert();\n        }\n\n        bytes32 claimedResult;\n        bytes32 computedResult;\n        bytes32 start;\n        if(prevIndex==0){\n            start=state.firstCheckpoint;\n            claimedResult=state.checkpoints[0];\n        }else if(prevIndex==NUM_CHECKPOINTS-2){\n            start=state.checkpoints[prevIndex-1];\n            claimedResult=state.lastCheckpoint;\n\n        }else{\n            start=state.checkpoints[prevIndex-1];\n            claimedResult=state.checkpoints[prevIndex];\n\n        }\n        bool verified=verify(start,claimedResult);\n        if(!verified){\n\n            selfdestruct(payable(challenger));\n        }else{\n            delete challenges[challenger];\n        }\n        return verified;\n\n\n\n    }\n\n    function getChallenge() public view returns (bytes32){\n        return challenge;\n    }\n      function getBeacon() public view returns (bytes32){\n        return initialState.lastCheckpoint;\n    }\n  function getCheckpoints() public view returns (bytes32[7] memory){\n      return challenges[msg.sender].checkpoints;\n  }\n    function getFirstCheckpoint() public view returns (bytes32){\n      return challenges[msg.sender].firstCheckpoint;\n  }\n   function getLastCheckpoint() public view returns (bytes32){\n      return challenges[msg.sender].lastCheckpoint;\n  }\n    //Modifiers\n\n    modifier noBeacon(){\n        if(initialState.initialized==true){\n            revert();\n        }\n        _;\n    }\n    modifier beaconExists() {\n         if(initialState.initialized==false){\n            revert();\n        }\n        _;\n    }\n    modifier indexInBounds(uint8 prevIndex){\n        if(prevIndex>=NUM_CHECKPOINTS-1){\n            revert();\n        }\n        _;\n    }\n      modifier inChallengePeriod(){\n        if(block.timestamp>initialState.lastChallenge+CHALLENGE_PERIOD){\n            revert();\n        }\n        _;\n    }\n\n\n\n\n\n\n\n\n\n}\n",
  "sourcePath": "/home/preston/python-random-beacon/contracts/RefereeContract.sol",
  "compiler": {
    "name": "solc",
    "version": "0.8.10+commit.fc410830.Emscripten.clang"
  },
  "schemaVersion": "3.4.3",
  "updatedAt": "2021-11-29T20:21:49.802Z",
  "networkType": "ethereum",
  "devdoc": {
    "kind": "dev",
    "methods": {},
    "version": 1
  },
  "userdoc": {
    "kind": "user",
    "methods": {},
    "version": 1
  }
}